{
  "_format": "hh-sol-artifact-1",
  "contractName": "MockPendleRouter",
  "sourceName": "contracts/mocks/MockPendleRouter.sol",
  "abi": [
    {
      "inputs": [
        {
          "internalType": "address",
          "name": "receiver",
          "type": "address"
        },
        {
          "internalType": "address",
          "name": "market",
          "type": "address"
        },
        {
          "internalType": "uint256",
          "name": "",
          "type": "uint256"
        },
        {
          "components": [
            {
              "internalType": "address",
              "name": "tokenIn",
              "type": "address"
            },
            {
              "internalType": "uint256",
              "name": "netTokenIn",
              "type": "uint256"
            },
            {
              "internalType": "address",
              "name": "tokenMintSy",
              "type": "address"
            },
            {
              "internalType": "address",
              "name": "pendleSwap",
              "type": "address"
            },
            {
              "components": [
                {
                  "internalType": "uint8",
                  "name": "swapType",
                  "type": "uint8"
                },
                {
                  "internalType": "address",
                  "name": "extRouter",
                  "type": "address"
                },
                {
                  "internalType": "bytes",
                  "name": "extCalldata",
                  "type": "bytes"
                },
                {
                  "internalType": "bool",
                  "name": "needScale",
                  "type": "bool"
                }
              ],
              "internalType": "struct IPendleRouter.SwapData",
              "name": "swapData",
              "type": "tuple"
            }
          ],
          "internalType": "struct IPendleRouter.TokenInput",
          "name": "input",
          "type": "tuple"
        }
      ],
      "name": "mintPyFromToken",
      "outputs": [
        {
          "internalType": "uint256",
          "name": "netPyOut",
          "type": "uint256"
        }
      ],
      "stateMutability": "nonpayable",
      "type": "function"
    },
    {
      "inputs": [
        {
          "internalType": "address",
          "name": "receiver",
          "type": "address"
        },
        {
          "internalType": "address",
          "name": "market",
          "type": "address"
        },
        {
          "internalType": "uint256",
          "name": "netPyIn",
          "type": "uint256"
        },
        {
          "components": [
            {
              "internalType": "address",
              "name": "tokenOut",
              "type": "address"
            },
            {
              "internalType": "uint256",
              "name": "minTokenOut",
              "type": "uint256"
            },
            {
              "internalType": "address",
              "name": "tokenRedeemSy",
              "type": "address"
            },
            {
              "internalType": "address",
              "name": "pendleSwap",
              "type": "address"
            },
            {
              "components": [
                {
                  "internalType": "uint8",
                  "name": "swapType",
                  "type": "uint8"
                },
                {
                  "internalType": "address",
                  "name": "extRouter",
                  "type": "address"
                },
                {
                  "internalType": "bytes",
                  "name": "extCalldata",
                  "type": "bytes"
                },
                {
                  "internalType": "bool",
                  "name": "needScale",
                  "type": "bool"
                }
              ],
              "internalType": "struct IPendleRouter.SwapData",
              "name": "swapData",
              "type": "tuple"
            }
          ],
          "internalType": "struct IPendleRouter.TokenOutput",
          "name": "output",
          "type": "tuple"
        }
      ],
      "name": "redeemPyToToken",
      "outputs": [
        {
          "internalType": "uint256",
          "name": "netTokenOut",
          "type": "uint256"
        }
      ],
      "stateMutability": "nonpayable",
      "type": "function"
    },
    {
      "inputs": [
        {
          "internalType": "address",
          "name": "receiver",
          "type": "address"
        },
        {
          "internalType": "address",
          "name": "market",
          "type": "address"
        },
        {
          "internalType": "uint256",
          "name": "exactYtIn",
          "type": "uint256"
        },
        {
          "components": [
            {
              "internalType": "address",
              "name": "tokenOut",
              "type": "address"
            },
            {
              "internalType": "uint256",
              "name": "minTokenOut",
              "type": "uint256"
            },
            {
              "internalType": "address",
              "name": "tokenRedeemSy",
              "type": "address"
            },
            {
              "internalType": "address",
              "name": "pendleSwap",
              "type": "address"
            },
            {
              "components": [
                {
                  "internalType": "uint8",
                  "name": "swapType",
                  "type": "uint8"
                },
                {
                  "internalType": "address",
                  "name": "extRouter",
                  "type": "address"
                },
                {
                  "internalType": "bytes",
                  "name": "extCalldata",
                  "type": "bytes"
                },
                {
                  "internalType": "bool",
                  "name": "needScale",
                  "type": "bool"
                }
              ],
              "internalType": "struct IPendleRouter.SwapData",
              "name": "swapData",
              "type": "tuple"
            }
          ],
          "internalType": "struct IPendleRouter.TokenOutput",
          "name": "output",
          "type": "tuple"
        },
        {
          "components": [
            {
              "internalType": "address",
              "name": "limitRouter",
              "type": "address"
            },
            {
              "internalType": "uint256",
              "name": "epsSkipMarket",
              "type": "uint256"
            },
            {
              "internalType": "bool",
              "name": "normalFillsFirst",
              "type": "bool"
            },
            {
              "internalType": "bool",
              "name": "fillPublishModal",
              "type": "bool"
            },
            {
              "internalType": "bytes",
              "name": "adminData",
              "type": "bytes"
            }
          ],
          "internalType": "struct IPendleRouter.LimitOrderData",
          "name": "",
          "type": "tuple"
        }
      ],
      "name": "swapExactYtForToken",
      "outputs": [
        {
          "internalType": "uint256",
          "name": "netTokenOut",
          "type": "uint256"
        }
      ],
      "stateMutability": "nonpayable",
      "type": "function"
    }
  ],
  "bytecode": "0x60808060405234610016576107f1908161001c8239f35b600080fdfe608060408181526004908136101561001657600080fd5b600092833560e01c90816347f1de221461048c5750806394bacd921461025e5763d0f423851461004557600080fd5b82913461025a5761005536610699565b9592919390506001600160a01b03938360206100ad81886100758c6106f2565b8b516323b872dd60e01b81523389820190815230602082015293909d0135604084018190529c95869492909116928492839160600190565b03925af18015610250579187918793610222575b5083825180988193630b2339af60e21b8352165afa94851561021857849085966101e8575b50811694853b156101da57879585885180928183816101427f40c10f19000000000000000000000000000000000000000000000000000000009d8e83528c8c8401602090939291936001600160a01b0360408201951681520152565b03925af180156101de579086916101c6575b50501690813b156101c25785519485526001600160a01b0390921691840191825260208201869052839182908490829060400103925af180156101b8576101a0575b6020838351908152f35b6101aa8491610706565b6101b45782610196565b8280fd5b82513d86823e3d90fd5b8380fd5b6101cf90610706565b6101da578438610154565b8480fd5b88513d88823e3d90fd5b82965061020b9150873d8911610211575b6102038183610749565b810190610797565b956100e6565b503d6101f9565b86513d86823e3d90fd5b6102429060203d8111610249575b61023a8183610749565b81019061076b565b50386100c1565b503d610230565b87513d87823e3d90fd5b5050fd5b50829034610488576003199260a0368501126101b4578035926001600160a01b03918285168503610483576024359483861680960361048357604435956064359767ffffffffffffffff808a1161047f5760a0828b3603011261047f5760843590811161047f579060a091360301126101c257858391815192838092630b2339af60e21b82525afa908115610218579085918591610460575b5086516323b872dd60e01b81523385820190815230602082810191909152604082018b90529a93909216918a9082908190606001038189865af180156101de57610443575b50803b156101da578651632770a7eb60e21b815230858201908152602081018a90529091869183919082908490829060400103925af1801561025057918893918a9593610420575b506103e096610395879285016106f2565b16928851978895869485937fa9059cbb0000000000000000000000000000000000000000000000000000000085528401602090939291936001600160a01b0360408201951681520152565b03925af190811561041557506103f8575b5051908152f35b61040e90843d86116102495761023a8183610749565b50836103f1565b8351903d90823e3d90fd5b86979450610432919396929550610706565b6101da57928792879295948a610384565b610459908a3d8c116102495761023a8183610749565b508961033c565b6104779150873d8911610211576102038183610749565b9050896102f7565b8580fd5b600080fd5b5080fd5b848385346101b45761049d36610699565b630b2339af60e21b889794929795939552858884816001600160a01b038099165afa801561021857856105149986908793610677575b50168751916323b872dd60e01b928381528a818060209e8f9330338d85016040919493929460608201956001600160a01b0380921683521660208201520152565b03818b875af1801561066d5790899291610650575b50895193845233878501908152306020820152604081018c9052911692908b908290819060600103818a875af1801561062957610633575b50803b1561047f578751632770a7eb60e21b80825230878301908152602081018c90529092889183919082908490829060400103925af1801561062957610616575b50813b1561047f57875190815230858201908152602081018a90529091869183919082908490829060400103925af1801561025057918893918a95936105f3575b506103e09661039587926106f2565b86979450610605919396929550610706565b6101da57928792879295948a6105e4565b61062290969196610706565b948a6105a3565b89513d89823e3d90fd5b610649908b3d8d116102495761023a8183610749565b508a610561565b610666908d803d106102495761023a8183610749565b508c610529565b8a513d8a823e3d90fd5b9050610691919250883d8a11610211576102038183610749565b91908b6104d3565b60031990608081830112610483576001600160a01b03926004358481168103610483579360243590811681036104835792604435926064359167ffffffffffffffff8311610483578260a0920301126104835760040190565b356001600160a01b03811681036104835790565b67ffffffffffffffff811161071a57604052565b7f4e487b7100000000000000000000000000000000000000000000000000000000600052604160045260246000fd5b90601f8019910116810190811067ffffffffffffffff82111761071a57604052565b90816020910312610483575180151581036104835790565b51906001600160a01b038216820361048357565b9190826040910312610483576107b860206107b184610783565b9301610783565b9056fea2646970667358221220ad4d5218650ddd3cb9d122a9a1663dc58a7cf65d5c71ccce448ebb1b8eb67c4664736f6c63430008140033",
  "linkReferences": {},
  "deployedLinkReferences": {}
}