{
  "_format": "hh-sol-artifact-1",
  "contractName": "HyperMarket",
  "sourceName": "contracts/core/HyperMarket.sol",
  "abi": [
    {
      "inputs": [
        {
          "internalType": "address",
          "name": "_underlyingToken",
          "type": "address"
        },
        {
          "internalType": "address",
          "name": "_pendleRouter",
          "type": "address"
        },
        {
          "internalType": "address",
          "name": "_pendleFactory",
          "type": "address"
        },
        {
          "internalType": "uint256",
          "name": "_minTimeLock",
          "type": "uint256"
        },
        {
          "internalType": "uint256",
          "name": "_maxTimeLock",
          "type": "uint256"
        },
        {
          "internalType": "uint256",
          "name": "_resolutionDate",
          "type": "uint256"
        },
        {
          "internalType": "address",
          "name": "_oracle",
          "type": "address"
        }
      ],
      "stateMutability": "nonpayable",
      "type": "constructor"
    },
    {
      "inputs": [
        {
          "internalType": "address",
          "name": "owner",
          "type": "address"
        }
      ],
      "name": "OwnableInvalidOwner",
      "type": "error"
    },
    {
      "inputs": [
        {
          "internalType": "address",
          "name": "account",
          "type": "address"
        }
      ],
      "name": "OwnableUnauthorizedAccount",
      "type": "error"
    },
    {
      "inputs": [],
      "name": "ReentrancyGuardReentrantCall",
      "type": "error"
    },
    {
      "anonymous": false,
      "inputs": [
        {
          "indexed": true,
          "internalType": "address",
          "name": "user",
          "type": "address"
        },
        {
          "indexed": false,
          "internalType": "uint256",
          "name": "principalReturned",
          "type": "uint256"
        },
        {
          "indexed": false,
          "internalType": "uint256",
          "name": "yieldWinnings",
          "type": "uint256"
        }
      ],
      "name": "Claimed",
      "type": "event"
    },
    {
      "anonymous": false,
      "inputs": [
        {
          "indexed": true,
          "internalType": "address",
          "name": "user",
          "type": "address"
        },
        {
          "indexed": false,
          "internalType": "uint256",
          "name": "amount",
          "type": "uint256"
        },
        {
          "indexed": false,
          "internalType": "uint256",
          "name": "timeLockDays",
          "type": "uint256"
        },
        {
          "indexed": false,
          "internalType": "uint256",
          "name": "maturityDate",
          "type": "uint256"
        },
        {
          "indexed": false,
          "internalType": "uint256",
          "name": "bettingPower",
          "type": "uint256"
        },
        {
          "indexed": false,
          "internalType": "uint8",
          "name": "side",
          "type": "uint8"
        }
      ],
      "name": "Deposited",
      "type": "event"
    },
    {
      "anonymous": false,
      "inputs": [
        {
          "indexed": true,
          "internalType": "address",
          "name": "previousOwner",
          "type": "address"
        },
        {
          "indexed": true,
          "internalType": "address",
          "name": "newOwner",
          "type": "address"
        }
      ],
      "name": "OwnershipTransferred",
      "type": "event"
    },
    {
      "anonymous": false,
      "inputs": [
        {
          "indexed": true,
          "internalType": "uint256",
          "name": "maturityDate",
          "type": "uint256"
        },
        {
          "indexed": true,
          "internalType": "address",
          "name": "market",
          "type": "address"
        },
        {
          "indexed": false,
          "internalType": "address",
          "name": "ptToken",
          "type": "address"
        },
        {
          "indexed": false,
          "internalType": "address",
          "name": "ytToken",
          "type": "address"
        }
      ],
      "name": "PendleMarketRegistered",
      "type": "event"
    },
    {
      "anonymous": false,
      "inputs": [
        {
          "indexed": false,
          "internalType": "uint8",
          "name": "winningSide",
          "type": "uint8"
        }
      ],
      "name": "Resolved",
      "type": "event"
    },
    {
      "inputs": [
        {
          "internalType": "uint256",
          "name": "",
          "type": "uint256"
        }
      ],
      "name": "activeMaturities",
      "outputs": [
        {
          "internalType": "uint256",
          "name": "",
          "type": "uint256"
        }
      ],
      "stateMutability": "view",
      "type": "function"
    },
    {
      "inputs": [
        {
          "internalType": "uint8",
          "name": "mode",
          "type": "uint8"
        }
      ],
      "name": "claim",
      "outputs": [],
      "stateMutability": "nonpayable",
      "type": "function"
    },
    {
      "inputs": [
        {
          "internalType": "uint256",
          "name": "amount",
          "type": "uint256"
        },
        {
          "internalType": "uint256",
          "name": "timeLockDays",
          "type": "uint256"
        },
        {
          "internalType": "uint8",
          "name": "side",
          "type": "uint8"
        }
      ],
      "name": "deposit",
      "outputs": [],
      "stateMutability": "nonpayable",
      "type": "function"
    },
    {
      "inputs": [],
      "name": "getActiveMaturities",
      "outputs": [
        {
          "internalType": "uint256[]",
          "name": "",
          "type": "uint256[]"
        }
      ],
      "stateMutability": "view",
      "type": "function"
    },
    {
      "inputs": [],
      "name": "market",
      "outputs": [
        {
          "internalType": "address",
          "name": "underlyingToken",
          "type": "address"
        },
        {
          "internalType": "uint256",
          "name": "resolutionDate",
          "type": "uint256"
        },
        {
          "internalType": "uint256",
          "name": "minTimeLock",
          "type": "uint256"
        },
        {
          "internalType": "uint256",
          "name": "maxTimeLock",
          "type": "uint256"
        },
        {
          "internalType": "bool",
          "name": "resolved",
          "type": "bool"
        },
        {
          "internalType": "uint8",
          "name": "outcome",
          "type": "uint8"
        }
      ],
      "stateMutability": "view",
      "type": "function"
    },
    {
      "inputs": [
        {
          "internalType": "uint256",
          "name": "",
          "type": "uint256"
        },
        {
          "internalType": "uint8",
          "name": "",
          "type": "uint8"
        }
      ],
      "name": "maturitySideYtBalance",
      "outputs": [
        {
          "internalType": "uint256",
          "name": "",
          "type": "uint256"
        }
      ],
      "stateMutability": "view",
      "type": "function"
    },
    {
      "inputs": [],
      "name": "oracle",
      "outputs": [
        {
          "internalType": "address",
          "name": "",
          "type": "address"
        }
      ],
      "stateMutability": "view",
      "type": "function"
    },
    {
      "inputs": [],
      "name": "owner",
      "outputs": [
        {
          "internalType": "address",
          "name": "",
          "type": "address"
        }
      ],
      "stateMutability": "view",
      "type": "function"
    },
    {
      "inputs": [],
      "name": "pendleFactory",
      "outputs": [
        {
          "internalType": "contract IPendleFactory",
          "name": "",
          "type": "address"
        }
      ],
      "stateMutability": "view",
      "type": "function"
    },
    {
      "inputs": [
        {
          "internalType": "uint256",
          "name": "",
          "type": "uint256"
        }
      ],
      "name": "pendleMarkets",
      "outputs": [
        {
          "internalType": "address",
          "name": "market",
          "type": "address"
        },
        {
          "internalType": "address",
          "name": "ptToken",
          "type": "address"
        },
        {
          "internalType": "address",
          "name": "ytToken",
          "type": "address"
        },
        {
          "internalType": "uint256",
          "name": "maturityDate",
          "type": "uint256"
        },
        {
          "internalType": "bool",
          "name": "isActive",
          "type": "bool"
        }
      ],
      "stateMutability": "view",
      "type": "function"
    },
    {
      "inputs": [],
      "name": "pendleRouter",
      "outputs": [
        {
          "internalType": "contract IPendleRouter",
          "name": "",
          "type": "address"
        }
      ],
      "stateMutability": "view",
      "type": "function"
    },
    {
      "inputs": [
        {
          "internalType": "address",
          "name": "",
          "type": "address"
        }
      ],
      "name": "positions",
      "outputs": [
        {
          "internalType": "uint256",
          "name": "principalAmount",
          "type": "uint256"
        },
        {
          "internalType": "uint256",
          "name": "bettingPower",
          "type": "uint256"
        },
        {
          "internalType": "uint256",
          "name": "maturityDate",
          "type": "uint256"
        },
        {
          "internalType": "uint256",
          "name": "ptBalance",
          "type": "uint256"
        },
        {
          "internalType": "uint256",
          "name": "ytBalance",
          "type": "uint256"
        },
        {
          "internalType": "uint8",
          "name": "side",
          "type": "uint8"
        },
        {
          "internalType": "bool",
          "name": "claimed",
          "type": "bool"
        }
      ],
      "stateMutability": "view",
      "type": "function"
    },
    {
      "inputs": [
        {
          "internalType": "uint256",
          "name": "maturityDate",
          "type": "uint256"
        },
        {
          "internalType": "address",
          "name": "pendleMarket",
          "type": "address"
        }
      ],
      "name": "registerPendleMarket",
      "outputs": [],
      "stateMutability": "nonpayable",
      "type": "function"
    },
    {
      "inputs": [],
      "name": "renounceOwnership",
      "outputs": [],
      "stateMutability": "nonpayable",
      "type": "function"
    },
    {
      "inputs": [
        {
          "internalType": "uint8",
          "name": "winningSide",
          "type": "uint8"
        }
      ],
      "name": "resolveMarket",
      "outputs": [],
      "stateMutability": "nonpayable",
      "type": "function"
    },
    {
      "inputs": [
        {
          "internalType": "address",
          "name": "_oracle",
          "type": "address"
        }
      ],
      "name": "setOracle",
      "outputs": [],
      "stateMutability": "nonpayable",
      "type": "function"
    },
    {
      "inputs": [
        {
          "internalType": "uint8",
          "name": "",
          "type": "uint8"
        }
      ],
      "name": "sideBPPool",
      "outputs": [
        {
          "internalType": "uint256",
          "name": "",
          "type": "uint256"
        }
      ],
      "stateMutability": "view",
      "type": "function"
    },
    {
      "inputs": [],
      "name": "totalBPPot",
      "outputs": [
        {
          "internalType": "uint256",
          "name": "",
          "type": "uint256"
        }
      ],
      "stateMutability": "view",
      "type": "function"
    },
    {
      "inputs": [
        {
          "internalType": "address",
          "name": "newOwner",
          "type": "address"
        }
      ],
      "name": "transferOwnership",
      "outputs": [],
      "stateMutability": "nonpayable",
      "type": "function"
    },
    {
      "inputs": [],
      "name": "underlyingToken",
      "outputs": [
        {
          "internalType": "contract IERC20",
          "name": "",
          "type": "address"
        }
      ],
      "stateMutability": "view",
      "type": "function"
    }
  ],
  "bytecode": "0x60c034620003d057601f62002e2638819003918201601f1916830192916001600160401b039182851184861017620003d5578160e09285926040978852833981010312620003d0576200005282620003eb565b9160209262000063848301620003eb565b9062000071868401620003eb565b916060840151946080850151966200009160c060a08801519701620003eb565b600093600185553315620003b85760018054336001600160a01b031980831682179093558d5192986001600160a01b039490939285929083167f8be0079c531659141344cd1fd0a4f28419497f9722a3daafe3b4186f6b6457e08b80a31690811562000376575060805281169687156200033d578116918215620003075789151580620002fc575b15620002c357428911156200027f57169081156200024a578660a05285600254161760025584600e541617600e5588519160c083019083821090821117620002365760a0929187918b5286835282015286898201528760608201528260808201520152600354161760035560045560055560065561ffff196007541660075551612a259081620004018239608051818181610a3d01528181610c0a01528181610c6801528181610e0101528181610e6001528181610f9101528181610fdc0152818161104301528181611abd01528181611cf601528181611e800152611ec9015260a051818181610a9d01528181610eb201528181611a7901528181611cb901528181611d4401528181611dc501528181611df10152611f070152f35b634e487b7160e01b84526041600452602484fd5b8a5162461bcd60e51b815260048101849052600e60248201526d496e76616c6964206f7261636c6560901b6044820152606490fd5b8b5162461bcd60e51b815260048101859052601760248201527f496e76616c6964207265736f6c7574696f6e20646174650000000000000000006044820152606490fd5b8b5162461bcd60e51b8152600481018590526012602482015271496e76616c69642074696d65206c6f636b7360701b6044820152606490fd5b508a8a111562000119565b8b5162461bcd60e51b815260048101859052600f60248201526e496e76616c696420666163746f727960881b6044820152606490fd5b8b5162461bcd60e51b8152600481018590526012602482015271496e76616c696420756e6465726c79696e6760701b6044820152606490fd5b62461bcd60e51b815260048101869052601660248201527f496e76616c696420726f757465722061646472657373000000000000000000006044820152606490fd5b8a51631e4fbdf760e01b815260048101869052602490fd5b600080fd5b634e487b7160e01b600052604160045260246000fd5b51906001600160a01b0382168203620003d05756fe6080604052600436101561001257600080fd5b60003560e01c806309ee18571461238c578063181af35c1461236557806319ba83a514611ae1578063206aeab314611a9d5780632495a59914611a5957806355f57510146119d85780635e1aac80146116a65780636dd6a69e146115f0578063715018a6146115885780637adbf973146114f15780637dc0d1d0146114ca57806380f55605146114715780638cedf761146114075780638da5cb5b146113e05780638dc1a920146113c257806395d4063f146103d4578063beef2d25146103a0578063de35c6481461035a578063f21ffa6b146101a95763f2fde38b146100f857600080fd5b346101a45760203660031901126101a457610111612420565b610119612436565b6001600160a01b03809116908115610173576001548273ffffffffffffffffffffffffffffffffffffffff19821617600155167f8be0079c531659141344cd1fd0a4f28419497f9722a3daafe3b4186f6b6457e0600080a3005b60246040517f1e4fbdf700000000000000000000000000000000000000000000000000000000815260006004820152fd5b600080fd5b346101a4576020806003193601126101a4576101c3612410565b906001600160a01b03600e54163303610316576007549160ff83166102d257600454421061028e5760ff811690600182148015610284575b15610240577f5e186f09b9c93491f14e277eea7faa5de6a2d4bda75a79af7a3684fbfb42da609361ff0060019260081b169061ffff19161717600755604051908152a1005b6064836040519062461bcd60e51b82526004820152600f60248201527f496e76616c6964206f7574636f6d6500000000000000000000000000000000006044820152fd5b50600282146101fb565b6064826040519062461bcd60e51b82526004820152600960248201527f546f6f206561726c7900000000000000000000000000000000000000000000006044820152fd5b6064826040519062461bcd60e51b82526004820152601060248201527f416c7265616479207265736f6c766564000000000000000000000000000000006044820152fd5b6064906040519062461bcd60e51b82526004820152600a60248201527f4e6f74206f7261636c65000000000000000000000000000000000000000000006044820152fd5b346101a45760403660031901126101a45760243560ff81168091036101a457600435600052600d6020526040600020906000526020526020604060002054604051908152f35b346101a45760203660031901126101a45760ff6103bb612410565b1660005260096020526020604060002054604051908152f35b346101a45760203660031901126101a4576103ed612410565b6103f561268f565b60ff600754161561137e5733600052600a602052604060002060058101805460ff8160081c1661133a578254156112f65760ff9161010061ff00198316179055818060075460081c16911614921680156000146107b05750610456906126ca565b6040810151600052600b602052600060206104fe6040832060405161047a816124e1565b6001600160a01b038254168152608060ff60046001600160a01b036001860154169485888601526001600160a01b036002820154166040860152600381015460608601520154161515910152606085015160405194858094819363a9059cbb60e01b83523360048401602090939291936001600160a01b0360408201951681520152565b03925af1801561072757610791575b50600091610554575b606001519060405191825260208201527f987d620f307ff6b94d58743cb7a7509f24071586a77759b77c2d4e29f75a2f9a60403392a25b6001600055005b60ff60075460081c16806000526009602052600161059260406000205461057c811515612731565b61058d6020860151600854906125b2565b61277c565b9103610789576002905b6000906000600c545b808210610741575050816105bc575b505050610516565b60009492945b600c54811015610733576105d5816123c3565b90549060031b1c80600052600d602052604060002060ff88166000526020528360406000205480610612575b50505061060d9061279c565b6105c2565b9061058d61062092866125b2565b908161062e575b8490610601565b60009591929552600b60205260406000209160405161064c816124e1565b6001600160a01b0384541681526001600160a01b036001850154166020820152608060ff60046001600160a01b03600288015416968760408601526003810154606086015201541615159101526020604051809463a9059cbb60e01b8252816000816106d2873360048401602090939291936001600160a01b0360408201951681520152565b03925af19182156107275761060d936106f0936106f8575b506125c5565b939087610627565b6107199060203d602011610720575b6107118183612519565b81019061253b565b50896106ea565b503d610707565b6040513d6000823e3d90fd5b5050509150606083806105b4565b909261077d61078391610753866123c3565b90549060031b1c600052600d602052604060002060ff8816600052602052604060002054906125c5565b9361279c565b906105a5565b60019061059c565b6107a99060203d602011610720576107118183612519565b508261050d565b6001036112b2576107c0906126ca565b6040810151600052600b60205260406000206040516107de816124e1565b6001600160a01b0382541681526001600160a01b036001830154169182602083015260ff60046001600160a01b0360028401541692836040860152600381015460608601520154161515608083015260009460001461124b5760ff60075460081c16928360005260096020526001610871604060002054610860811515612731565b61058d6020890151600854906125b2565b9403611243576002925b600c54600092835b8281106111fd575060009184611180575b5060008461113a575b606089015190808210156111325750945b85610dea575b509084916060890151838111610d77575b50508092606060408a01519101511480610d6e575b610d5d575b5050151580610d54575b61092f575b505050506060905b01519060405191825260208201527f987d620f307ff6b94d58743cb7a7509f24071586a77759b77c2d4e29f75a2f9a60403392a261054d565b6000959394955b600c54811015610d4257610949816123c3565b90549060031b1c9081600052600d602052604060002060ff86166000526020528260406000205480610987575b5050610982915061279c565b610936565b9061058d610995928a6125b2565b916040890151811480610d39575b610d17575b826109b5575b8390610976565b600052600b602052604060002095604051926109d0846124e1565b6001600160a01b0388541684526001600160a01b03600189015416602085015260ff60046001600160a01b0360028b015416998a604088015260038101546060880152015416151560808501526040519063095ea7b360e01b825260208280610a7c846001600160a01b037f00000000000000000000000000000000000000000000000000000000000000001660048401602090939291936001600160a01b0360408201951681520152565b038160008d5af191821561072757602092610cfa575b506001600160a01b037f00000000000000000000000000000000000000000000000000000000000000001694604051610aca816124c5565b60008152600084820152604051610ae0816124fd565b6000815260408201526000606082015260405196610afd886124e1565b8088526000858901526040880152600060608801526080870152610bfc6001600160a01b0360405192610b2f846124e1565b600084526000868501526001604085015260006060850152604051610b53816124fd565b60008152608085015251169160405197889485947f94bacd92000000000000000000000000000000000000000000000000000000008652336004870152602486015260448501526080610bb260a09283606488015260a4870190612612565b926003198685030160848701526001600160a01b038151168452878101518885015260408101511515604085015260608101511515606085015201519181608082015201906125d2565b038160006001600160a01b037f0000000000000000000000000000000000000000000000000000000000000000165af192831561072757600093610cc4575b50610c4a6000936020926125c5565b9660446040518095819363095ea7b360e01b83526001600160a01b037f00000000000000000000000000000000000000000000000000000000000000001660048401528160248401525af19182156107275761098292156109ae57610cbd9060203d602011610720576107118183612519565b50886109ae565b92506020833d602011610cf2575b81610cdf60209383612519565b810103126101a457915191610c4a610c3b565b3d9150610cd2565b610d1090833d8511610720576107118183612519565b508b610a92565b9184808210610d2f57610d29916127ab565b916109a8565b50506000916109a8565b508415156109a3565b505050509160609150908380806108ee565b508015156108e9565b610d6792506127ab565b82886108df565b508115156108da565b602091610d89600095610db3936127ab565b60405163a9059cbb60e01b8152336004820152602481019190915294859283919082906044820190565b03925af1918215610727578592610dcb575b806108c5565b610de39060203d602011610720576107118183612519565b5089610dc5565b60405163095ea7b360e01b81526001600160a01b037f000000000000000000000000000000000000000000000000000000000000000016600482015260248101879052919950919060208160448160008e5af1801561072757611113575b5060405163095ea7b360e01b81526001600160a01b037f0000000000000000000000000000000000000000000000000000000000000000166004820152602481018690526020816044816000875af18015610727576110f4575b50610f8360206001600160a01b037f000000000000000000000000000000000000000000000000000000000000000016604051610ede816124c5565b60008152600083820152604051610ef4816124fd565b6000815260408201526000606082015260405191610f11836124e1565b80835260008484015260408301526000606083015260808201526001600160a01b0386511660405193849283927f47f1de2200000000000000000000000000000000000000000000000000000000845233600485015260248401528a6044840152608060648401526084830190612612565b038160006001600160a01b037f0000000000000000000000000000000000000000000000000000000000000000165af1908115610727576000916110c2575b50986040519263095ea7b360e01b84526001600160a01b037f0000000000000000000000000000000000000000000000000000000000000000166004850152600060248501526020846044816000865af1908115610727576000946020926110a5575b5060446040518096819363095ea7b360e01b83526001600160a01b037f00000000000000000000000000000000000000000000000000000000000000001660048401528160248401525af1928315610727578693611086575b5090916108b4565b61109e9060203d602011610720576107118183612519565b508a61107e565b6110bb90833d8511610720576107118183612519565b508c611025565b90506020813d6020116110ec575b816110dd60209383612519565b810103126101a457518a610fc2565b3d91506110d0565b61110c9060203d602011610720576107118183612519565b5089610ea2565b61112b9060203d602011610720576107118183612519565b5089610e48565b9050946108ae565b6040890151600052600d602052604060002060ff8816600052602052846040600020548061116a575b505061089d565b611179925061058d908a6125b2565b848b611163565b60005b8181106111905750610894565b611199816123c3565b90549060031b1c600052600d602052604060002060ff8916600052602052856040600020548a816111d6575b5050506111d19061279c565b611183565b6111f29261058d6111d19598936111ec936125b2565b906125c5565b939050858c8a6111c5565b9361123861123e9161120e876123c3565b90549060031b1c600052600d602052604060002060ff8a16600052602052604060002054906125c5565b9461279c565b610883565b60019261087b565b5050606082015160405163a9059cbb60e01b815233600482015260248101919091529190602090839060449082906000905af191821561072757606092611293575b506108f6565b6112ab9060203d602011610720576107118183612519565b508361128d565b606460405162461bcd60e51b815260206004820152600c60248201527f496e76616c6964206d6f646500000000000000000000000000000000000000006044820152fd5b606460405162461bcd60e51b815260206004820152600b60248201527f4e6f20706f736974696f6e0000000000000000000000000000000000000000006044820152fd5b606460405162461bcd60e51b815260206004820152600f60248201527f416c726561647920636c61696d656400000000000000000000000000000000006044820152fd5b606460405162461bcd60e51b815260206004820152600c60248201527f4e6f74207265736f6c76656400000000000000000000000000000000000000006044820152fd5b346101a45760003660031901126101a4576020600854604051908152f35b346101a45760003660031901126101a45760206001600160a01b0360015416604051908152f35b346101a45760203660031901126101a457600435600052600b60205260a060406000206001600160a01b038082541691816001820154169160028201541660ff60046003840154930154169260405194855260208501526040840152606083015215156080820152f35b346101a45760003660031901126101a45760c06001600160a01b036003541660ff60045460055460065490600754926040519586526020860152604085015260608401528181161515608084015260081c1660a0820152f35b346101a45760003660031901126101a45760206001600160a01b03600e5416604051908152f35b346101a45760203660031901126101a4576001600160a01b03611512612420565b61151a612436565b1680156115445773ffffffffffffffffffffffffffffffffffffffff19600e541617600e55600080f35b606460405162461bcd60e51b815260206004820152600e60248201527f496e76616c6964206f7261636c650000000000000000000000000000000000006044820152fd5b346101a45760003660031901126101a4576115a1612436565b60006001600160a01b0360015473ffffffffffffffffffffffffffffffffffffffff198116600155167f8be0079c531659141344cd1fd0a4f28419497f9722a3daafe3b4186f6b6457e08280a3005b346101a45760003660031901126101a45760405180600c5480835260208093018091600c6000527fdf6966c971051c3d54ec59162606531493a51404a002842f56009d7e5cf4a8c79060005b8682821061169257868661165282880383612519565b604051928392818401908285525180915260408401929160005b82811061167b57505050500390f35b83518552869550938101939281019260010161166c565b83548552909301926001928301920161163c565b346101a45760403660031901126101a457600435602435906001600160a01b038083168093036101a4576116d8612436565b6116e342831161247a565b81600052602090600b82528060406000205416611994576024828260025416604051928380926358e6309f60e01b82528960048301525afa80156107275761173391600091611977575b50612553565b6040517f2c8ce6bc000000000000000000000000000000000000000000000000000000008152604081600481885afa9182156107275760009160009361192f575b506040516370c264df60e11b815284816004818a5afa80156107275786916000916118fe575b50036118ba5760046040516117ae816124e1565b87815282868201941693848152836040830196169586815260608301918983526080840195600187528a600052600b8a528060406000209551169173ffffffffffffffffffffffffffffffffffffffff1992838754161786558160018701915116838254161790556002850192511690825416179055516003820155019051151560ff80198354169116179055600c5491680100000000000000008310156118a4577f647d9a04e3e316c6b7d865f88b7f3e39b83af1a52ad72dfafb9772d76f60c1399361188484600160409601600c556123c3565b81549060031b9088821b91600019901b19161790558351928352820152a3005b634e487b7160e01b600052604160045260246000fd5b6064846040519062461bcd60e51b82526004820152601160248201527f4d61747572697479206d69736d617463680000000000000000000000000000006044820152fd5b809250868092503d8311611928575b6119178183612519565b810103126101a4578590518861179a565b503d61190d565b915091506040813d60401161196f575b8161194c60409383612519565b810103126101a457611968836119618361259e565b920161259e565b9186611774565b3d915061193f565b61198e9150843d8611610720576107118183612519565b8661172d565b6064826040519062461bcd60e51b82526004820152601260248201527f416c7265616479207265676973746572656400000000000000000000000000006044820152fd5b346101a45760203660031901126101a4576001600160a01b036119f9612420565b16600052600a60205260e0604060002060ff81549160018101549060028101546003820154906005600484015493015493604051968752602087015260408601526060850152608084015281811660a084015260081c16151560c0820152f35b346101a45760003660031901126101a45760206040516001600160a01b037f0000000000000000000000000000000000000000000000000000000000000000168152f35b346101a45760003660031901126101a45760206040516001600160a01b037f0000000000000000000000000000000000000000000000000000000000000000168152f35b346101a45760603660031901126101a45760443560ff811681036101a457611b0761268f565b60ff60075416612321576004544210156122dd57600160ff82161480156122d0575b1561228c57600435156122485760055460243510158061223a575b156121f657602435801590620151808181029182041482171561213957611b6b90426125c5565b9182600052600b6020526001600160a01b0360406000205416156121b25782600052600b6020526001600160a01b036040600020541660206001600160a01b0360025416916024604051809481936358e6309f60e01b835260048301525afa801561072757611be1916000916121935750612553565b82600052600b60205260406000209160ff6004840154161561214f57611c106001600160a01b038454166127b8565b90670de0b6b3a76400009182602435029160243583048414171561213957828102928184041490151715612139576ec097ce7bc90715b34b9f100000000091611c6761271061016d611c6c940492046004356125b2565b6125b2565b046040517f23b872dd000000000000000000000000000000000000000000000000000000008152336004820152306024820152600435604482015260208160648160006001600160a01b037f0000000000000000000000000000000000000000000000000000000000000000165af180156107275761211a575b5060405163095ea7b360e01b81527f00000000000000000000000000000000000000000000000000000000000000006001600160a01b0316600480830191909152356024820152926020848060448101038160006001600160a01b037f0000000000000000000000000000000000000000000000000000000000000000165af190811561072757611e72946020926120fd575b506001600160a01b0360405191611d8f836124c5565b60008352600084840152604051611da5816124fd565b6000815260408401526000606084015260405192611dc2846124e1565b827f000000000000000000000000000000000000000000000000000000000000000016845260043585850152827f0000000000000000000000000000000000000000000000000000000000000000166040850152600060608501526080840152541660405195869283927fd0f42385000000000000000000000000000000000000000000000000000000008452306004850152602484015260006044840152608060648401526084830190612612565b038160006001600160a01b037f0000000000000000000000000000000000000000000000000000000000000000165af1928315610727576000936120c9575b5060405163095ea7b360e01b81526001600160a01b037f00000000000000000000000000000000000000000000000000000000000000001660048201526000602482015260208160448160006001600160a01b037f0000000000000000000000000000000000000000000000000000000000000000165af18015610727576120aa575b5033600052600a602052604060002092835415156000146120915760ff831660ff6005860154160361204d57600460ff945b611f72823582546125c5565b815560018101611f838582546125c5565b905586600282015560038101611f9a8482546125c5565b905501611fa88282546125c5565b9055611fb6826008546125c5565b60085583831660005260096020526040600020611fd48382546125c5565b905584600052600d6020526040600020848416600052602052611ffd60406000209182546125c5565b90556040519360043585526024356020860152604085015260608401521660808201527f59493e8f91e8de15c472a280b27c5abe8f1a1a6f83e9a6c1c64222009406cb8360a03392a26001600055005b606460405162461bcd60e51b815260206004820152600c60248201527f43616e6e6f7420686564676500000000000000000000000000000000000000006044820152fd5b600484600560ff96018686168719825416179055611f66565b6120c29060203d602011610720576107118183612519565b5084611f34565b9092506020813d6020116120f5575b816120e560209383612519565b810103126101a457519184611eb1565b3d91506120d8565b61211390833d8511610720576107118183612519565b5086611d79565b6121329060203d602011610720576107118183612519565b5084611ce6565b634e487b7160e01b600052601160045260246000fd5b606460405162461bcd60e51b815260206004820152601160248201527f4d61726b6574206e6f74206163746976650000000000000000000000000000006044820152fd5b6121ac915060203d602011610720576107118183612519565b8561172d565b606460405162461bcd60e51b815260206004820152601560248201527f4d61726b6574206e6f74207265676973746572656400000000000000000000006044820152fd5b606460405162461bcd60e51b815260206004820152601160248201527f496e76616c69642074696d65206c6f636b0000000000000000000000000000006044820152fd5b506006546024351115611b44565b606460405162461bcd60e51b815260206004820152601260248201527f416d6f756e74206d757374206265203e203000000000000000000000000000006044820152fd5b606460405162461bcd60e51b815260206004820152600c60248201527f496e76616c6964207369646500000000000000000000000000000000000000006044820152fd5b50600260ff821614611b29565b606460405162461bcd60e51b815260206004820152600e60248201527f42657474696e6720636c6f7365640000000000000000000000000000000000006044820152fd5b606460405162461bcd60e51b815260206004820152600f60248201527f4d61726b6574207265736f6c76656400000000000000000000000000000000006044820152fd5b346101a45760003660031901126101a45760206001600160a01b0360025416604051908152f35b346101a45760203660031901126101a457600435600c548110156101a4576123b56020916123c3565b90546040519160031b1c8152f35b600c548110156123fa57600c6000527fdf6966c971051c3d54ec59162606531493a51404a002842f56009d7e5cf4a8c70190600090565b634e487b7160e01b600052603260045260246000fd5b6004359060ff821682036101a457565b600435906001600160a01b03821682036101a457565b6001600160a01b0360015416330361244a57565b60246040517f118cdaa7000000000000000000000000000000000000000000000000000000008152336004820152fd5b1561248157565b606460405162461bcd60e51b815260206004820152601060248201527f496e76616c6964206d61747572697479000000000000000000000000000000006044820152fd5b6080810190811067ffffffffffffffff8211176118a457604052565b60a0810190811067ffffffffffffffff8211176118a457604052565b6020810190811067ffffffffffffffff8211176118a457604052565b90601f8019910116810190811067ffffffffffffffff8211176118a457604052565b908160209103126101a4575180151581036101a45790565b1561255a57565b606460405162461bcd60e51b815260206004820152600e60248201527f496e76616c6964206d61726b65740000000000000000000000000000000000006044820152fd5b51906001600160a01b03821682036101a457565b8181029291811591840414171561213957565b9190820180921161213957565b919082519283825260005b8481106125fe575050826000602080949584010152601f8019910116010190565b6020818301810151848301820152016125dd565b9060806001600160a01b03928381511683526020810151602084015283604082015116604084015283606082015116606084015201519160a0608083015260ff83511660a083015260208301511660c082015261010060606126846040850151608060e08601526101208501906125d2565b930151151591015290565b6002600054146126a0576002600055565b60046040517f3ee5aeb5000000000000000000000000000000000000000000000000000000008152fd5b9060405160e0810181811067ffffffffffffffff8211176118a45760405260c060ff600583958054855260018101546020860152600281015460408601526003810154606086015260048101546080860152015481811660a085015260081c161515910152565b1561273857565b606460405162461bcd60e51b815260206004820152600a60248201527f4e6f2077696e6e657273000000000000000000000000000000000000000000006044820152fd5b8115612786570490565b634e487b7160e01b600052601260045260246000fd5b60001981146121395760010190565b9190820391821161213957565b6001600160a01b03166040517f2778c3340000000000000000000000000000000000000000000000000000000081526004906080818381865afa9283156107275760009182946129b2575b5060208391604051928380926370c264df60e11b82525afa9081156107275760009161297e575b504281111561293a57612842620151809142906127ab565b04801591612850831561247a565b801561291b57670de0b6b3a76400009485810290808204871490151715612925579061287b9161277c565b918483111561291b57670de0b6b3a763ffff198301928311612906576128f15783916128b2916813c9647e25a994000004906125b2565b0490612710918281029281840414901517156128dc575004906113888083116128d85750565b9150565b601190634e487b7160e01b6000525260246000fd5b601283634e487b7160e01b6000525260246000fd5b601184634e487b7160e01b6000525260246000fd5b5050505050600090565b601185634e487b7160e01b6000525260246000fd5b60648360206040519162461bcd60e51b8352820152600e60248201527f4d61726b657420657870697265640000000000000000000000000000000000006044820152fd5b906020823d82116129aa575b8161299760209383612519565b810103126129a75750513861282a565b80fd5b3d915061298a565b919093506080823d82116129e7575b816129ce60809383612519565b810103126129a757508051602091820151939091612803565b3d91506129c156fea26469706673582212207b637e28068dbcf6f78ef85113dbc978e954cb5a04913dec6be0603b58efddd564736f6c63430008140033",
  "linkReferences": {},
  "deployedLinkReferences": {}
}