{
  "_format": "hh-sol-artifact-1",
  "contractName": "MockPendleMarket",
  "sourceName": "contracts/mocks/MockPendleMarket.sol",
  "abi": [
    {
      "inputs": [
        {
          "internalType": "address",
          "name": "_ptToken",
          "type": "address"
        },
        {
          "internalType": "address",
          "name": "_ytToken",
          "type": "address"
        },
        {
          "internalType": "uint256",
          "name": "_expiry",
          "type": "uint256"
        }
      ],
      "stateMutability": "nonpayable",
      "type": "constructor"
    },
    {
      "inputs": [],
      "name": "expiry",
      "outputs": [
        {
          "internalType": "uint256",
          "name": "",
          "type": "uint256"
        }
      ],
      "stateMutability": "view",
      "type": "function"
    },
    {
      "inputs": [],
      "name": "ptToken",
      "outputs": [
        {
          "internalType": "address",
          "name": "",
          "type": "address"
        }
      ],
      "stateMutability": "view",
      "type": "function"
    },
    {
      "inputs": [],
      "name": "pyIndex",
      "outputs": [
        {
          "internalType": "uint256",
          "name": "",
          "type": "uint256"
        }
      ],
      "stateMutability": "view",
      "type": "function"
    },
    {
      "inputs": [],
      "name": "readState",
      "outputs": [
        {
          "internalType": "uint256",
          "name": "_syIndex",
          "type": "uint256"
        },
        {
          "internalType": "uint256",
          "name": "_pyIndex",
          "type": "uint256"
        },
        {
          "internalType": "uint256",
          "name": "_totalSy",
          "type": "uint256"
        },
        {
          "internalType": "uint256",
          "name": "_totalPy",
          "type": "uint256"
        }
      ],
      "stateMutability": "view",
      "type": "function"
    },
    {
      "inputs": [],
      "name": "readTokens",
      "outputs": [
        {
          "internalType": "address",
          "name": "pt",
          "type": "address"
        },
        {
          "internalType": "address",
          "name": "yt",
          "type": "address"
        }
      ],
      "stateMutability": "view",
      "type": "function"
    },
    {
      "inputs": [
        {
          "internalType": "uint256",
          "name": "_syIndex",
          "type": "uint256"
        },
        {
          "internalType": "uint256",
          "name": "_pyIndex",
          "type": "uint256"
        },
        {
          "internalType": "uint256",
          "name": "_totalSy",
          "type": "uint256"
        },
        {
          "internalType": "uint256",
          "name": "_totalPy",
          "type": "uint256"
        }
      ],
      "name": "setState",
      "outputs": [],
      "stateMutability": "nonpayable",
      "type": "function"
    },
    {
      "inputs": [
        {
          "internalType": "uint256",
          "name": "yieldRateBps",
          "type": "uint256"
        },
        {
          "internalType": "uint256",
          "name": "daysToMaturity",
          "type": "uint256"
        }
      ],
      "name": "setYieldRate",
      "outputs": [],
      "stateMutability": "nonpayable",
      "type": "function"
    },
    {
      "inputs": [],
      "name": "syIndex",
      "outputs": [
        {
          "internalType": "uint256",
          "name": "",
          "type": "uint256"
        }
      ],
      "stateMutability": "view",
      "type": "function"
    },
    {
      "inputs": [],
      "name": "totalPy",
      "outputs": [
        {
          "internalType": "uint256",
          "name": "",
          "type": "uint256"
        }
      ],
      "stateMutability": "view",
      "type": "function"
    },
    {
      "inputs": [],
      "name": "totalSy",
      "outputs": [
        {
          "internalType": "uint256",
          "name": "",
          "type": "uint256"
        }
      ],
      "stateMutability": "view",
      "type": "function"
    },
    {
      "inputs": [],
      "name": "ytToken",
      "outputs": [
        {
          "internalType": "address",
          "name": "",
          "type": "address"
        }
      ],
      "stateMutability": "view",
      "type": "function"
    }
  ],
  "bytecode": "0x60e0346100b557601f6104bd38819003918201601f19168301916001600160401b038311848410176100ba578084926060946040528339810103126100b557610047816100d0565b906040610056602083016100d0565b9101519160805260a05260c052670de0b6b3a764000080600055600155600060025560006003556040516103d890816100e5823960805181818161016f015261031f015260a0518181816102ce0152610343015260c0518161011f0152f35b600080fd5b634e487b7160e01b600052604160045260246000fd5b51906001600160a01b03821682036100b55756fe608060408181526004918236101561001657600080fd5b600092833560e01c9182632778c3341461036d575081632c8ce6bc146102f257816342203015146102a157816366bd78bd146102825781638c6b15ac146101b2578163c7bfb21e14610193578163e018b0ef14610142578163e184c9be14610107578163e65da835146100e8578163ed05c792146100bd575063f9f74da41461009e57600080fd5b346100b957816003193601126100b957602091549051908152f35b5080fd5b8390346100b95760803660031901126100b95735815560243560015560443560025560643560035580f35b5050346100b957816003193601126100b9576020906003549051908152f35b5050346100b957816003193601126100b957602090517f00000000000000000000000000000000000000000000000000000000000000008152f35b5050346100b957816003193601126100b9576020905173ffffffffffffffffffffffffffffffffffffffff7f0000000000000000000000000000000000000000000000000000000000000000168152f35b5050346100b957816003193601126100b9576020906002549051908152f35b9190503461027e573660031901126100b957670de0b6b3a764000080835590602490803582358481029080159082048614171561026c5761016d9004908481029080820486149015171561026c57612710900480850290858204810361025a578202850291811591830414171561024857839004830180931161023757505060015580f35b60118491634e487b7160e01b835252fd5b5060118491634e487b7160e01b835252fd5b8487601186634e487b7160e01b835252fd5b8386601185634e487b7160e01b835252fd5b8280fd5b5050346100b957816003193601126100b9576020906001549051908152f35b5050346100b957816003193601126100b9576020905173ffffffffffffffffffffffffffffffffffffffff7f0000000000000000000000000000000000000000000000000000000000000000168152f35b82843461036a578060031936011261036a5750805173ffffffffffffffffffffffffffffffffffffffff807f00000000000000000000000000000000000000000000000000000000000000001682527f0000000000000000000000000000000000000000000000000000000000000000166020820152f35b80fd5b8490843461027e578260031936011261027e576080925490600154906002549160035493855260208501528301526060820152f3fea26469706673582212202fd0fbe6686537bd586c75e8bf78a1f493a29a55415c583c36632dc3a5d2f43764736f6c63430008140033",
  "linkReferences": {},
  "deployedLinkReferences": {}
}